{
  "_format": "hh-sol-artifact-1",
  "contractName": "KnowledgeNFT",
  "sourceName": "contracts/KnowledgeNFT.sol",
  "abi": [
    {
      "inputs": [
        {
          "internalType": "address",
          "name": "_truthHub",
          "type": "address"
        }
      ],
      "stateMutability": "nonpayable",
      "type": "constructor"
    },
    {
      "inputs": [
        {
          "internalType": "address",
          "name": "sender",
          "type": "address"
        },
        {
          "internalType": "uint256",
          "name": "tokenId",
          "type": "uint256"
        },
        {
          "internalType": "address",
          "name": "owner",
          "type": "address"
        }
      ],
      "name": "ERC721IncorrectOwner",
      "type": "error"
    },
    {
      "inputs": [
        {
          "internalType": "address",
          "name": "operator",
          "type": "address"
        },
        {
          "internalType": "uint256",
          "name": "tokenId",
          "type": "uint256"
        }
      ],
      "name": "ERC721InsufficientApproval",
      "type": "error"
    },
    {
      "inputs": [
        {
          "internalType": "address",
          "name": "approver",
          "type": "address"
        }
      ],
      "name": "ERC721InvalidApprover",
      "type": "error"
    },
    {
      "inputs": [
        {
          "internalType": "address",
          "name": "operator",
          "type": "address"
        }
      ],
      "name": "ERC721InvalidOperator",
      "type": "error"
    },
    {
      "inputs": [
        {
          "internalType": "address",
          "name": "owner",
          "type": "address"
        }
      ],
      "name": "ERC721InvalidOwner",
      "type": "error"
    },
    {
      "inputs": [
        {
          "internalType": "address",
          "name": "receiver",
          "type": "address"
        }
      ],
      "name": "ERC721InvalidReceiver",
      "type": "error"
    },
    {
      "inputs": [
        {
          "internalType": "address",
          "name": "sender",
          "type": "address"
        }
      ],
      "name": "ERC721InvalidSender",
      "type": "error"
    },
    {
      "inputs": [
        {
          "internalType": "uint256",
          "name": "tokenId",
          "type": "uint256"
        }
      ],
      "name": "ERC721NonexistentToken",
      "type": "error"
    },
    {
      "inputs": [
        {
          "internalType": "address",
          "name": "owner",
          "type": "address"
        }
      ],
      "name": "OwnableInvalidOwner",
      "type": "error"
    },
    {
      "inputs": [
        {
          "internalType": "address",
          "name": "account",
          "type": "address"
        }
      ],
      "name": "OwnableUnauthorizedAccount",
      "type": "error"
    },
    {
      "anonymous": false,
      "inputs": [
        {
          "indexed": true,
          "internalType": "address",
          "name": "owner",
          "type": "address"
        },
        {
          "indexed": true,
          "internalType": "address",
          "name": "approved",
          "type": "address"
        },
        {
          "indexed": true,
          "internalType": "uint256",
          "name": "tokenId",
          "type": "uint256"
        }
      ],
      "name": "Approval",
      "type": "event"
    },
    {
      "anonymous": false,
      "inputs": [
        {
          "indexed": true,
          "internalType": "address",
          "name": "owner",
          "type": "address"
        },
        {
          "indexed": true,
          "internalType": "address",
          "name": "operator",
          "type": "address"
        },
        {
          "indexed": false,
          "internalType": "bool",
          "name": "approved",
          "type": "bool"
        }
      ],
      "name": "ApprovalForAll",
      "type": "event"
    },
    {
      "anonymous": false,
      "inputs": [
        {
          "indexed": false,
          "internalType": "uint256",
          "name": "_fromTokenId",
          "type": "uint256"
        },
        {
          "indexed": false,
          "internalType": "uint256",
          "name": "_toTokenId",
          "type": "uint256"
        }
      ],
      "name": "BatchMetadataUpdate",
      "type": "event"
    },
    {
      "anonymous": false,
      "inputs": [
        {
          "indexed": false,
          "internalType": "uint256",
          "name": "_tokenId",
          "type": "uint256"
        }
      ],
      "name": "MetadataUpdate",
      "type": "event"
    },
    {
      "anonymous": false,
      "inputs": [
        {
          "indexed": true,
          "internalType": "uint256",
          "name": "tokenId",
          "type": "uint256"
        },
        {
          "indexed": true,
          "internalType": "address",
          "name": "creator",
          "type": "address"
        },
        {
          "indexed": false,
          "internalType": "uint256",
          "name": "proofId",
          "type": "uint256"
        },
        {
          "indexed": false,
          "internalType": "string",
          "name": "topic",
          "type": "string"
        }
      ],
      "name": "NFTMinted",
      "type": "event"
    },
    {
      "anonymous": false,
      "inputs": [
        {
          "indexed": true,
          "internalType": "address",
          "name": "previousOwner",
          "type": "address"
        },
        {
          "indexed": true,
          "internalType": "address",
          "name": "newOwner",
          "type": "address"
        }
      ],
      "name": "OwnershipTransferred",
      "type": "event"
    },
    {
      "anonymous": false,
      "inputs": [
        {
          "indexed": true,
          "internalType": "address",
          "name": "from",
          "type": "address"
        },
        {
          "indexed": true,
          "internalType": "address",
          "name": "to",
          "type": "address"
        },
        {
          "indexed": true,
          "internalType": "uint256",
          "name": "tokenId",
          "type": "uint256"
        }
      ],
      "name": "Transfer",
      "type": "event"
    },
    {
      "inputs": [],
      "name": "MINT_FEE",
      "outputs": [
        {
          "internalType": "uint256",
          "name": "",
          "type": "uint256"
        }
      ],
      "stateMutability": "view",
      "type": "function"
    },
    {
      "inputs": [
        {
          "internalType": "address",
          "name": "to",
          "type": "address"
        },
        {
          "internalType": "uint256",
          "name": "tokenId",
          "type": "uint256"
        }
      ],
      "name": "approve",
      "outputs": [],
      "stateMutability": "nonpayable",
      "type": "function"
    },
    {
      "inputs": [
        {
          "internalType": "address",
          "name": "owner",
          "type": "address"
        }
      ],
      "name": "balanceOf",
      "outputs": [
        {
          "internalType": "uint256",
          "name": "",
          "type": "uint256"
        }
      ],
      "stateMutability": "view",
      "type": "function"
    },
    {
      "inputs": [
        {
          "internalType": "uint256",
          "name": "tokenId",
          "type": "uint256"
        }
      ],
      "name": "getApproved",
      "outputs": [
        {
          "internalType": "address",
          "name": "",
          "type": "address"
        }
      ],
      "stateMutability": "view",
      "type": "function"
    },
    {
      "inputs": [
        {
          "internalType": "address",
          "name": "_user",
          "type": "address"
        }
      ],
      "name": "getUserNFTs",
      "outputs": [
        {
          "internalType": "uint256[]",
          "name": "",
          "type": "uint256[]"
        }
      ],
      "stateMutability": "view",
      "type": "function"
    },
    {
      "inputs": [
        {
          "internalType": "address",
          "name": "_user",
          "type": "address"
        }
      ],
      "name": "getUserTruthReputation",
      "outputs": [
        {
          "internalType": "uint256",
          "name": "",
          "type": "uint256"
        }
      ],
      "stateMutability": "view",
      "type": "function"
    },
    {
      "inputs": [
        {
          "internalType": "address",
          "name": "owner",
          "type": "address"
        },
        {
          "internalType": "address",
          "name": "operator",
          "type": "address"
        }
      ],
      "name": "isApprovedForAll",
      "outputs": [
        {
          "internalType": "bool",
          "name": "",
          "type": "bool"
        }
      ],
      "stateMutability": "view",
      "type": "function"
    },
    {
      "inputs": [
        {
          "internalType": "uint256",
          "name": "_proofId",
          "type": "uint256"
        },
        {
          "internalType": "string",
          "name": "_topic",
          "type": "string"
        },
        {
          "internalType": "string",
          "name": "_tokenURI",
          "type": "string"
        }
      ],
      "name": "mintKnowledgeNFT",
      "outputs": [
        {
          "internalType": "uint256",
          "name": "",
          "type": "uint256"
        }
      ],
      "stateMutability": "payable",
      "type": "function"
    },
    {
      "inputs": [],
      "name": "name",
      "outputs": [
        {
          "internalType": "string",
          "name": "",
          "type": "string"
        }
      ],
      "stateMutability": "view",
      "type": "function"
    },
    {
      "inputs": [
        {
          "internalType": "uint256",
          "name": "",
          "type": "uint256"
        }
      ],
      "name": "nftMetadata",
      "outputs": [
        {
          "internalType": "uint256",
          "name": "proofId",
          "type": "uint256"
        },
        {
          "internalType": "string",
          "name": "topic",
          "type": "string"
        },
        {
          "internalType": "uint256",
          "name": "mintedAt",
          "type": "uint256"
        },
        {
          "internalType": "address",
          "name": "creator",
          "type": "address"
        }
      ],
      "stateMutability": "view",
      "type": "function"
    },
    {
      "inputs": [],
      "name": "owner",
      "outputs": [
        {
          "internalType": "address",
          "name": "",
          "type": "address"
        }
      ],
      "stateMutability": "view",
      "type": "function"
    },
    {
      "inputs": [
        {
          "internalType": "uint256",
          "name": "tokenId",
          "type": "uint256"
        }
      ],
      "name": "ownerOf",
      "outputs": [
        {
          "internalType": "address",
          "name": "",
          "type": "address"
        }
      ],
      "stateMutability": "view",
      "type": "function"
    },
    {
      "inputs": [],
      "name": "renounceOwnership",
      "outputs": [],
      "stateMutability": "nonpayable",
      "type": "function"
    },
    {
      "inputs": [
        {
          "internalType": "address",
          "name": "from",
          "type": "address"
        },
        {
          "internalType": "address",
          "name": "to",
          "type": "address"
        },
        {
          "internalType": "uint256",
          "name": "tokenId",
          "type": "uint256"
        }
      ],
      "name": "safeTransferFrom",
      "outputs": [],
      "stateMutability": "nonpayable",
      "type": "function"
    },
    {
      "inputs": [
        {
          "internalType": "address",
          "name": "from",
          "type": "address"
        },
        {
          "internalType": "address",
          "name": "to",
          "type": "address"
        },
        {
          "internalType": "uint256",
          "name": "tokenId",
          "type": "uint256"
        },
        {
          "internalType": "bytes",
          "name": "data",
          "type": "bytes"
        }
      ],
      "name": "safeTransferFrom",
      "outputs": [],
      "stateMutability": "nonpayable",
      "type": "function"
    },
    {
      "inputs": [
        {
          "internalType": "address",
          "name": "operator",
          "type": "address"
        },
        {
          "internalType": "bool",
          "name": "approved",
          "type": "bool"
        }
      ],
      "name": "setApprovalForAll",
      "outputs": [],
      "stateMutability": "nonpayable",
      "type": "function"
    },
    {
      "inputs": [
        {
          "internalType": "bytes4",
          "name": "interfaceId",
          "type": "bytes4"
        }
      ],
      "name": "supportsInterface",
      "outputs": [
        {
          "internalType": "bool",
          "name": "",
          "type": "bool"
        }
      ],
      "stateMutability": "view",
      "type": "function"
    },
    {
      "inputs": [],
      "name": "symbol",
      "outputs": [
        {
          "internalType": "string",
          "name": "",
          "type": "string"
        }
      ],
      "stateMutability": "view",
      "type": "function"
    },
    {
      "inputs": [
        {
          "internalType": "uint256",
          "name": "tokenId",
          "type": "uint256"
        }
      ],
      "name": "tokenURI",
      "outputs": [
        {
          "internalType": "string",
          "name": "",
          "type": "string"
        }
      ],
      "stateMutability": "view",
      "type": "function"
    },
    {
      "inputs": [],
      "name": "totalSupply",
      "outputs": [
        {
          "internalType": "uint256",
          "name": "",
          "type": "uint256"
        }
      ],
      "stateMutability": "view",
      "type": "function"
    },
    {
      "inputs": [
        {
          "internalType": "address",
          "name": "from",
          "type": "address"
        },
        {
          "internalType": "address",
          "name": "to",
          "type": "address"
        },
        {
          "internalType": "uint256",
          "name": "tokenId",
          "type": "uint256"
        }
      ],
      "name": "transferFrom",
      "outputs": [],
      "stateMutability": "nonpayable",
      "type": "function"
    },
    {
      "inputs": [
        {
          "internalType": "address",
          "name": "newOwner",
          "type": "address"
        }
      ],
      "name": "transferOwnership",
      "outputs": [],
      "stateMutability": "nonpayable",
      "type": "function"
    },
    {
      "inputs": [],
      "name": "truthHub",
      "outputs": [
        {
          "internalType": "contract ITruthHub",
          "name": "",
          "type": "address"
        }
      ],
      "stateMutability": "view",
      "type": "function"
    },
    {
      "inputs": [
        {
          "internalType": "address",
          "name": "",
          "type": "address"
        }
      ],
      "name": "userMintCount",
      "outputs": [
        {
          "internalType": "uint256",
          "name": "",
          "type": "uint256"
        }
      ],
      "stateMutability": "view",
      "type": "function"
    },
    {
      "inputs": [
        {
          "internalType": "address",
          "name": "",
          "type": "address"
        },
        {
          "internalType": "uint256",
          "name": "",
          "type": "uint256"
        }
      ],
      "name": "userNFTs",
      "outputs": [
        {
          "internalType": "uint256",
          "name": "",
          "type": "uint256"
        }
      ],
      "stateMutability": "view",
      "type": "function"
    },
    {
      "inputs": [
        {
          "internalType": "address",
          "name": "",
          "type": "address"
        }
      ],
      "name": "userTruthScore",
      "outputs": [
        {
          "internalType": "uint256",
          "name": "",
          "type": "uint256"
        }
      ],
      "stateMutability": "view",
      "type": "function"
    },
    {
      "inputs": [],
      "name": "withdraw",
      "outputs": [],
      "stateMutability": "nonpayable",
      "type": "function"
    }
  ],
  "bytecode": "0x608060405260016008553480156200001657600080fd5b506040516200212b3803806200212b833981016040819052620000399162000164565b336040518060400160405280601381526020017f54727574684d696e74204b6e6f776c6564676500000000000000000000000000815250604051806040016040528060058152602001640a8a4aaa8960db1b81525081600090816200009f91906200023b565b506001620000ae82826200023b565b5050506001600160a01b038116620000e057604051631e4fbdf760e01b81526000600482015260240160405180910390fd5b620000eb8162000112565b50600980546001600160a01b0319166001600160a01b039290921691909117905562000307565b600780546001600160a01b038381166001600160a01b0319831681179093556040519116919082907f8be0079c531659141344cd1fd0a4f28419497f9722a3daafe3b4186f6b6457e090600090a35050565b6000602082840312156200017757600080fd5b81516001600160a01b03811681146200018f57600080fd5b9392505050565b634e487b7160e01b600052604160045260246000fd5b600181811c90821680620001c157607f821691505b602082108103620001e257634e487b7160e01b600052602260045260246000fd5b50919050565b601f8211156200023657600081815260208120601f850160051c81016020861015620002115750805b601f850160051c820191505b8181101562000232578281556001016200021d565b5050505b505050565b81516001600160401b0381111562000257576200025762000196565b6200026f81620002688454620001ac565b84620001e8565b602080601f831160018114620002a757600084156200028e5750858301515b600019600386901b1c1916600185901b17855562000232565b600085815260208120601f198616915b82811015620002d857888601518255948401946001909101908401620002b7565b5085821015620002f75787850151600019600388901b60f8161c191681555b5050505050600190811b01905550565b611e1480620003176000396000f3fe60806040526004361061019c5760003560e01c80636352211e116100ec578063b4908a131161008a578063d74ac1dc11610064578063d74ac1dc146104af578063d7bf81a3146104dc578063e985e9c5146104f7578063f2fde38b1461051757600080fd5b8063b4908a131461044f578063b88d4fde1461046f578063c87b56dd1461048f57600080fd5b80637d78ad33116100c65780637d78ad33146103e95780638da5cb5b146103fc57806395d89b411461041a578063a22cb4651461042f57600080fd5b80636352211e1461039457806370a08231146103b4578063715018a6146103d457600080fd5b8063291c73c3116101595780633ccfd60b116101335780633ccfd60b1461030257806342842e0e14610317578063495410151461033757806352de4ee51461036757600080fd5b8063291c73c3146102955780633047d758146102b55780633950891f146102d557600080fd5b806301ffc9a7146101a157806306fdde03146101d6578063081812fc146101f8578063095ea7b31461023057806318160ddd1461025257806323b872dd14610275575b600080fd5b3480156101ad57600080fd5b506101c16101bc366004611646565b610537565b60405190151581526020015b60405180910390f35b3480156101e257600080fd5b506101eb610548565b6040516101cd91906116b3565b34801561020457600080fd5b506102186102133660046116c6565b6105da565b6040516001600160a01b0390911681526020016101cd565b34801561023c57600080fd5b5061025061024b3660046116f4565b610603565b005b34801561025e57600080fd5b50610267610612565b6040519081526020016101cd565b34801561028157600080fd5b50610250610290366004611720565b610628565b3480156102a157600080fd5b506102676102b03660046116f4565b6106b8565b3480156102c157600080fd5b50600954610218906001600160a01b031681565b3480156102e157600080fd5b506102676102f0366004611761565b600d6020526000908152604090205481565b34801561030e57600080fd5b506102506106e9565b34801561032357600080fd5b50610250610332366004611720565b61072d565b34801561034357600080fd5b506103576103523660046116c6565b61074d565b6040516101cd949392919061177e565b34801561037357600080fd5b50610387610382366004611761565b610808565b6040516101cd91906117b8565b3480156103a057600080fd5b506102186103af3660046116c6565b610874565b3480156103c057600080fd5b506102676103cf366004611761565b61087f565b3480156103e057600080fd5b506102506108c7565b6102676103f73660046118c9565b6108db565b34801561040857600080fd5b506007546001600160a01b0316610218565b34801561042657600080fd5b506101eb610b92565b34801561043b57600080fd5b5061025061044a366004611944565b610ba1565b34801561045b57600080fd5b5061026761046a366004611761565b610bac565b34801561047b57600080fd5b5061025061048a36600461197d565b610c02565b34801561049b57600080fd5b506101eb6104aa3660046116c6565b610c1a565b3480156104bb57600080fd5b506102676104ca366004611761565b600c6020526000908152604090205481565b3480156104e857600080fd5b50610267662386f26fc1000081565b34801561050357600080fd5b506101c16105123660046119fd565b610c25565b34801561052357600080fd5b50610250610532366004611761565b610c53565b600061054282610c8e565b92915050565b60606000805461055790611a2b565b80601f016020809104026020016040519081016040528092919081815260200182805461058390611a2b565b80156105d05780601f106105a5576101008083540402835291602001916105d0565b820191906000526020600020905b8154815290600101906020018083116105b357829003601f168201915b5050505050905090565b60006105e582610cb3565b506000828152600460205260409020546001600160a01b0316610542565b61060e828233610cec565b5050565b600060016008546106239190611a7b565b905090565b6001600160a01b03821661065757604051633250574960e11b8152600060048201526024015b60405180910390fd5b6000610664838333610cf9565b9050836001600160a01b0316816001600160a01b0316146106b2576040516364283d7b60e01b81526001600160a01b038086166004830152602482018490528216604482015260640161064e565b50505050565b600b60205281600052604060002081815481106106d457600080fd5b90600052602060002001600091509150505481565b6106f1610df2565b6007546040516001600160a01b03909116904780156108fc02916000818181858888f1935050505015801561072a573d6000803e3d6000fd5b50565b61074883838360405180602001604052806000815250610c02565b505050565b600a602052600090815260409020805460018201805491929161076f90611a2b565b80601f016020809104026020016040519081016040528092919081815260200182805461079b90611a2b565b80156107e85780601f106107bd576101008083540402835291602001916107e8565b820191906000526020600020905b8154815290600101906020018083116107cb57829003601f168201915b5050505060028301546003909301549192916001600160a01b0316905084565b6001600160a01b0381166000908152600b602090815260409182902080548351818402810184019094528084526060939283018282801561086857602002820191906000526020600020905b815481526020019060010190808311610854575b50505050509050919050565b600061054282610cb3565b60006001600160a01b0382166108ab576040516322718ad960e21b81526000600482015260240161064e565b506001600160a01b031660009081526003602052604090205490565b6108cf610df2565b6108d96000610e1f565b565b6000662386f26fc1000034101561092c5760405162461bcd60e51b8152602060048201526015602482015274496e73756666696369656e74206d696e742066656560581b604482015260640161064e565b60095460405163088a4d6d60e11b815260048101869052600091829182916001600160a01b0316906311149ada90602401600060405180830381865afa15801561097a573d6000803e3d6000fd5b505050506040513d6000823e601f3d908101601f191682016040526109a29190810190611aff565b505050505092509250925060008351116109f55760405162461bcd60e51b8152602060048201526014602482015273141c9bdbd988191bd95cc81b9bdd08195e1a5cdd60621b604482015260640161064e565b81610a3a5760405162461bcd60e51b815260206004820152601560248201527410db185a5b481a5cc81b9bdd081d995c9a599a5959605a1b604482015260640161064e565b6008805460009182610a4b83611be8565b919050559050610a5b3382610e71565b610a658187610e8b565b6040805160808101825289815260208082018a815242838501523360608401526000858152600a9092529290208151815591519091906001820190610aaa9082611c47565b506040828101516002830155606090920151600390910180546001600160a01b0319166001600160a01b03909216919091179055336000818152600b6020908152838220805460018101825590835281832001859055918152600c909152908120805460ff85169290610b1e908490611d07565b9091555050336000908152600d60205260408120805491610b3e83611be8565b9190505550336001600160a01b0316817f463d85ceb93cc4d7ddf6727f8a3206619e95f36edb2a7851afccd49445dc90278a8a604051610b7f929190611d1a565b60405180910390a3979650505050505050565b60606001805461055790611a2b565b61060e338383610edb565b6001600160a01b0381166000908152600d60205260408120548103610bd357506000919050565b6001600160a01b0382166000908152600d6020908152604080832054600c909252909120546105429190611d33565b610c0d848484610628565b6106b23385858585610f7a565b6060610542826110a5565b6001600160a01b03918216600090815260056020908152604080832093909416825291909152205460ff1690565b610c5b610df2565b6001600160a01b038116610c8557604051631e4fbdf760e01b81526000600482015260240161064e565b61072a81610e1f565b60006001600160e01b03198216632483248360e11b14806105425750610542826111b6565b6000818152600260205260408120546001600160a01b03168061054257604051637e27328960e01b81526004810184905260240161064e565b6107488383836001611206565b6000828152600260205260408120546001600160a01b0390811690831615610d2657610d2681848661130c565b6001600160a01b03811615610d6457610d43600085600080611206565b6001600160a01b038116600090815260036020526040902080546000190190555b6001600160a01b03851615610d93576001600160a01b0385166000908152600360205260409020805460010190555b60008481526002602052604080822080546001600160a01b0319166001600160a01b0389811691821790925591518793918516917fddf252ad1be2c89b69c2b068fc378daa952ba7f163c4a11628f55a4df523b3ef91a4949350505050565b6007546001600160a01b031633146108d95760405163118cdaa760e01b815233600482015260240161064e565b600780546001600160a01b038381166001600160a01b0319831681179093556040519116919082907f8be0079c531659141344cd1fd0a4f28419497f9722a3daafe3b4186f6b6457e090600090a35050565b61060e828260405180602001604052806000815250611370565b6000828152600660205260409020610ea38282611c47565b506040518281527ff8e1a15aba9398e019f0b49df1a4fde98ee17ae345cb5f6b5e2c27f5033e8ce79060200160405180910390a15050565b6001600160a01b038216610f0d57604051630b61174360e31b81526001600160a01b038316600482015260240161064e565b6001600160a01b03838116600081815260056020908152604080832094871680845294825291829020805460ff191686151590811790915591519182527f17307eab39ab6107e8899845ad3d59bd9653f200f220920489ca2b5937696c31910160405180910390a3505050565b6001600160a01b0383163b1561109e57604051630a85bd0160e11b81526001600160a01b0384169063150b7a0290610fbc908890889087908790600401611d55565b6020604051808303816000875af1925050508015610ff7575060408051601f3d908101601f19168201909252610ff491810190611d92565b60015b611060573d808015611025576040519150601f19603f3d011682016040523d82523d6000602084013e61102a565b606091505b50805160000361105857604051633250574960e11b81526001600160a01b038516600482015260240161064e565b805160208201fd5b6001600160e01b03198116630a85bd0160e11b1461109c57604051633250574960e11b81526001600160a01b038516600482015260240161064e565b505b5050505050565b60606110b082610cb3565b50600082815260066020526040812080546110ca90611a2b565b80601f01602080910402602001604051908101604052809291908181526020018280546110f690611a2b565b80156111435780601f1061111857610100808354040283529160200191611143565b820191906000526020600020905b81548152906001019060200180831161112657829003601f168201915b50505050509050600061116160408051602081019091526000815290565b90508051600003611173575092915050565b8151156111a557808260405160200161118d929190611daf565b60405160208183030381529060405292505050919050565b6111ae84611388565b949350505050565b60006001600160e01b031982166380ac58cd60e01b14806111e757506001600160e01b03198216635b5e139f60e01b145b8061054257506301ffc9a760e01b6001600160e01b0319831614610542565b808061121a57506001600160a01b03821615155b156112dc57600061122a84610cb3565b90506001600160a01b038316158015906112565750826001600160a01b0316816001600160a01b031614155b801561126957506112678184610c25565b155b156112925760405163a9fbf51f60e01b81526001600160a01b038416600482015260240161064e565b81156112da5783856001600160a01b0316826001600160a01b03167f8c5be1e5ebec7d5bd14f71427d1e84f3dd0314c0f7b2291e5b200ac8c7c3b92560405160405180910390a45b505b5050600090815260046020526040902080546001600160a01b0319166001600160a01b0392909216919091179055565b6113178383836113fd565b610748576001600160a01b03831661134557604051637e27328960e01b81526004810182905260240161064e565b60405163177e802f60e01b81526001600160a01b03831660048201526024810182905260440161064e565b61137a8383611460565b610748336000858585610f7a565b606061139382610cb3565b5060006113ab60408051602081019091526000815290565b905060008151116113cb57604051806020016040528060008152506113f6565b806113d5846114c5565b6040516020016113e6929190611daf565b6040516020818303038152906040525b9392505050565b60006001600160a01b038316158015906111ae5750826001600160a01b0316846001600160a01b0316148061143757506114378484610c25565b806111ae5750506000908152600460205260409020546001600160a01b03908116911614919050565b6001600160a01b03821661148a57604051633250574960e11b81526000600482015260240161064e565b600061149883836000610cf9565b90506001600160a01b03811615610748576040516339e3563760e11b81526000600482015260240161064e565b606060006114d283611558565b600101905060008167ffffffffffffffff8111156114f2576114f26117fc565b6040519080825280601f01601f19166020018201604052801561151c576020820181803683370190505b5090508181016020015b600019016f181899199a1a9b1b9c1cb0b131b232b360811b600a86061a8153600a850494508461152657509392505050565b60008072184f03e93ff9f4daa797ed6e38ed64bf6a1f0160401b83106115975772184f03e93ff9f4daa797ed6e38ed64bf6a1f0160401b830492506040015b6d04ee2d6d415b85acef810000000083106115c3576d04ee2d6d415b85acef8100000000830492506020015b662386f26fc1000083106115e157662386f26fc10000830492506010015b6305f5e10083106115f9576305f5e100830492506008015b612710831061160d57612710830492506004015b6064831061161f576064830492506002015b600a83106105425760010192915050565b6001600160e01b03198116811461072a57600080fd5b60006020828403121561165857600080fd5b81356113f681611630565b60005b8381101561167e578181015183820152602001611666565b50506000910152565b6000815180845261169f816020860160208601611663565b601f01601f19169290920160200192915050565b6020815260006113f66020830184611687565b6000602082840312156116d857600080fd5b5035919050565b6001600160a01b038116811461072a57600080fd5b6000806040838503121561170757600080fd5b8235611712816116df565b946020939093013593505050565b60008060006060848603121561173557600080fd5b8335611740816116df565b92506020840135611750816116df565b929592945050506040919091013590565b60006020828403121561177357600080fd5b81356113f6816116df565b8481526080602082015260006117976080830186611687565b6040830194909452506001600160a01b039190911660609091015292915050565b6020808252825182820181905260009190848201906040850190845b818110156117f0578351835292840192918401916001016117d4565b50909695505050505050565b634e487b7160e01b600052604160045260246000fd5b604051601f8201601f1916810167ffffffffffffffff8111828210171561183b5761183b6117fc565b604052919050565b600067ffffffffffffffff82111561185d5761185d6117fc565b50601f01601f191660200190565b600061187e61187984611843565b611812565b905082815283838301111561189257600080fd5b828260208301376000602084830101529392505050565b600082601f8301126118ba57600080fd5b6113f68383356020850161186b565b6000806000606084860312156118de57600080fd5b83359250602084013567ffffffffffffffff808211156118fd57600080fd5b611909878388016118a9565b9350604086013591508082111561191f57600080fd5b5061192c868287016118a9565b9150509250925092565b801515811461072a57600080fd5b6000806040838503121561195757600080fd5b8235611962816116df565b9150602083013561197281611936565b809150509250929050565b6000806000806080858703121561199357600080fd5b843561199e816116df565b935060208501356119ae816116df565b925060408501359150606085013567ffffffffffffffff8111156119d157600080fd5b8501601f810187136119e257600080fd5b6119f18782356020840161186b565b91505092959194509250565b60008060408385031215611a1057600080fd5b8235611a1b816116df565b91506020830135611972816116df565b600181811c90821680611a3f57607f821691505b602082108103611a5f57634e487b7160e01b600052602260045260246000fd5b50919050565b634e487b7160e01b600052601160045260246000fd5b8181038181111561054257610542611a65565b600082601f830112611a9f57600080fd5b8151611aad61187982611843565b818152846020838601011115611ac257600080fd5b6111ae826020830160208701611663565b8051611ade81611936565b919050565b805160ff81168114611ade57600080fd5b8051611ade816116df565b600080600080600080600080610100898b031215611b1c57600080fd5b885167ffffffffffffffff80821115611b3457600080fd5b611b408c838d01611a8e565b9950611b4e60208c01611ad3565b9850611b5c60408c01611ae3565b975060608b0151965060808b0151915080821115611b7957600080fd5b611b858c838d01611a8e565b9550611b9360a08c01611af4565b945060c08b0151915080821115611ba957600080fd5b611bb58c838d01611a8e565b935060e08b0151915080821115611bcb57600080fd5b50611bd88b828c01611a8e565b9150509295985092959890939650565b600060018201611bfa57611bfa611a65565b5060010190565b601f82111561074857600081815260208120601f850160051c81016020861015611c285750805b601f850160051c820191505b8181101561109c57828155600101611c34565b815167ffffffffffffffff811115611c6157611c616117fc565b611c7581611c6f8454611a2b565b84611c01565b602080601f831160018114611caa5760008415611c925750858301515b600019600386901b1c1916600185901b17855561109c565b600085815260208120601f198616915b82811015611cd957888601518255948401946001909101908401611cba565b5085821015611cf75787850151600019600388901b60f8161c191681555b5050505050600190811b01905550565b8082018082111561054257610542611a65565b8281526040602082015260006111ae6040830184611687565b600082611d5057634e487b7160e01b600052601260045260246000fd5b500490565b6001600160a01b0385811682528416602082015260408101839052608060608201819052600090611d8890830184611687565b9695505050505050565b600060208284031215611da457600080fd5b81516113f681611630565b60008351611dc1818460208801611663565b835190830190611dd5818360208801611663565b0194935050505056fea2646970667358221220bf1aa231d89bd8c2e1f6121e766ea8026915c27f274f38123efd4b0c179601cb64736f6c63430008140033",
  "linkReferences": {},
  "deployedLinkReferences": {}
}