{
  "_format": "hh-sol-artifact-1",
  "contractName": "TruthHub",
  "sourceName": "contracts/TruthHub.sol",
  "abi": [
    {
      "anonymous": false,
      "inputs": [
        {
          "indexed": true,
          "internalType": "uint256",
          "name": "proofId",
          "type": "uint256"
        },
        {
          "indexed": false,
          "internalType": "string",
          "name": "claim",
          "type": "string"
        },
        {
          "indexed": false,
          "internalType": "bool",
          "name": "isVerified",
          "type": "bool"
        },
        {
          "indexed": false,
          "internalType": "uint8",
          "name": "confidenceScore",
          "type": "uint8"
        },
        {
          "indexed": false,
          "internalType": "string",
          "name": "dataSource",
          "type": "string"
        }
      ],
      "name": "ProofRegistered",
      "type": "event"
    },
    {
      "inputs": [
        {
          "internalType": "uint256",
          "name": "_proofId",
          "type": "uint256"
        }
      ],
      "name": "getProof",
      "outputs": [
        {
          "internalType": "string",
          "name": "claim",
          "type": "string"
        },
        {
          "internalType": "bool",
          "name": "isVerified",
          "type": "bool"
        },
        {
          "internalType": "uint8",
          "name": "confidenceScore",
          "type": "uint8"
        },
        {
          "internalType": "uint256",
          "name": "timestamp",
          "type": "uint256"
        },
        {
          "internalType": "string",
          "name": "dataSource",
          "type": "string"
        },
        {
          "internalType": "address",
          "name": "verifier",
          "type": "address"
        },
        {
          "internalType": "string",
          "name": "ftsoData",
          "type": "string"
        },
        {
          "internalType": "string",
          "name": "fdcData",
          "type": "string"
        }
      ],
      "stateMutability": "view",
      "type": "function"
    },
    {
      "inputs": [],
      "name": "proofCount",
      "outputs": [
        {
          "internalType": "uint256",
          "name": "",
          "type": "uint256"
        }
      ],
      "stateMutability": "view",
      "type": "function"
    },
    {
      "inputs": [
        {
          "internalType": "uint256",
          "name": "",
          "type": "uint256"
        }
      ],
      "name": "proofs",
      "outputs": [
        {
          "internalType": "string",
          "name": "claim",
          "type": "string"
        },
        {
          "internalType": "bool",
          "name": "isVerified",
          "type": "bool"
        },
        {
          "internalType": "uint8",
          "name": "confidenceScore",
          "type": "uint8"
        },
        {
          "internalType": "uint256",
          "name": "timestamp",
          "type": "uint256"
        },
        {
          "internalType": "string",
          "name": "dataSource",
          "type": "string"
        },
        {
          "internalType": "address",
          "name": "verifier",
          "type": "address"
        },
        {
          "internalType": "string",
          "name": "ftsoData",
          "type": "string"
        },
        {
          "internalType": "string",
          "name": "fdcData",
          "type": "string"
        }
      ],
      "stateMutability": "view",
      "type": "function"
    },
    {
      "inputs": [
        {
          "internalType": "string",
          "name": "_claim",
          "type": "string"
        },
        {
          "internalType": "bool",
          "name": "_isVerified",
          "type": "bool"
        },
        {
          "internalType": "uint8",
          "name": "_confidenceScore",
          "type": "uint8"
        },
        {
          "internalType": "string",
          "name": "_dataSource",
          "type": "string"
        },
        {
          "internalType": "string",
          "name": "_ftsoData",
          "type": "string"
        },
        {
          "internalType": "string",
          "name": "_fdcData",
          "type": "string"
        }
      ],
      "name": "registerProof",
      "outputs": [
        {
          "internalType": "uint256",
          "name": "",
          "type": "uint256"
        }
      ],
      "stateMutability": "nonpayable",
      "type": "function"
    }
  ],
  "bytecode": "0x608060405234801561001057600080fd5b50610c61806100206000396000f3fe608060405234801561001057600080fd5b506004361061004c5760003560e01c806311149ada14610051578063134ac1d8146100815780639ddaf5aa146100a2578063addecc06146100b5575b600080fd5b61006461005f366004610800565b6100be565b60405161007898979695949392919061085f565b60405180910390f35b61009461008f3660046109ad565b6103bc565b604051908152602001610078565b6100646100b0366004610800565b610588565b61009460015481565b606060008060006060600060608060008060008b8152602001908152602001600020604051806101000160405290816000820180546100fc90610a7a565b80601f016020809104026020016040519081016040528092919081815260200182805461012890610a7a565b80156101755780601f1061014a57610100808354040283529160200191610175565b820191906000526020600020905b81548152906001019060200180831161015857829003601f168201915b5050509183525050600182015460ff80821615156020840152610100909104166040820152600282015460608201526003820180546080909201916101b990610a7a565b80601f01602080910402602001604051908101604052809291908181526020018280546101e590610a7a565b80156102325780601f1061020757610100808354040283529160200191610232565b820191906000526020600020905b81548152906001019060200180831161021557829003601f168201915b505050918352505060048201546001600160a01b0316602082015260058201805460409092019161026290610a7a565b80601f016020809104026020016040519081016040528092919081815260200182805461028e90610a7a565b80156102db5780601f106102b0576101008083540402835291602001916102db565b820191906000526020600020905b8154815290600101906020018083116102be57829003601f168201915b505050505081526020016006820180546102f490610a7a565b80601f016020809104026020016040519081016040528092919081815260200182805461032090610a7a565b801561036d5780601f106103425761010080835404028352916020019161036d565b820191906000526020600020905b81548152906001019060200180831161035057829003601f168201915b5050505050815250509050806000015181602001518260400151836060015184608001518560a001518660c001518760e001519850985098509850985098509850985050919395975091939597565b600060648560ff1611156104165760405162461bcd60e51b815260206004820152601860248201527f496e76616c696420636f6e666964656e63652073636f72650000000000000000604482015260640160405180910390fd5b600180546000918261042783610ab4565b91905055905060405180610100016040528089815260200188151581526020018760ff168152602001428152602001868152602001336001600160a01b0316815260200185815260200184815250600080838152602001908152602001600020600082015181600001908161049c9190610b2a565b506020820151600182018054604085015160ff166101000261ff00199315159390931661ffff199091161791909117905560608201516002820155608082015160038201906104eb9082610b2a565b5060a08201516004820180546001600160a01b0319166001600160a01b0390921691909117905560c082015160058201906105269082610b2a565b5060e0820151600682019061053b9082610b2a565b50905050807fd706a4067c1a4577f51e7835a7773eecdbeec64ec60a14f305837133bbcf5b61898989896040516105759493929190610bea565b60405180910390a2979650505050505050565b6000602081905290815260409020805481906105a390610a7a565b80601f01602080910402602001604051908101604052809291908181526020018280546105cf90610a7a565b801561061c5780601f106105f15761010080835404028352916020019161061c565b820191906000526020600020905b8154815290600101906020018083116105ff57829003601f168201915b5050505060018301546002840154600385018054949560ff80851696610100909504169450919261064c90610a7a565b80601f016020809104026020016040519081016040528092919081815260200182805461067890610a7a565b80156106c55780601f1061069a576101008083540402835291602001916106c5565b820191906000526020600020905b8154815290600101906020018083116106a857829003601f168201915b505050600484015460058501805494956001600160a01b039092169491935091506106ef90610a7a565b80601f016020809104026020016040519081016040528092919081815260200182805461071b90610a7a565b80156107685780601f1061073d57610100808354040283529160200191610768565b820191906000526020600020905b81548152906001019060200180831161074b57829003601f168201915b50505050509080600601805461077d90610a7a565b80601f01602080910402602001604051908101604052809291908181526020018280546107a990610a7a565b80156107f65780601f106107cb576101008083540402835291602001916107f6565b820191906000526020600020905b8154815290600101906020018083116107d957829003601f168201915b5050505050905088565b60006020828403121561081257600080fd5b5035919050565b6000815180845260005b8181101561083f57602081850181015186830182015201610823565b506000602082860101526020601f19601f83011685010191505092915050565b60006101008083526108738184018c610819565b9050891515602084015260ff89166040840152876060840152828103608084015261089e8188610819565b6001600160a01b03871660a085015283810360c085015290506108c18186610819565b905082810360e08401526108d58185610819565b9b9a5050505050505050505050565b634e487b7160e01b600052604160045260246000fd5b600082601f83011261090b57600080fd5b813567ffffffffffffffff80821115610926576109266108e4565b604051601f8301601f19908116603f0116810190828211818310171561094e5761094e6108e4565b8160405283815286602085880101111561096757600080fd5b836020870160208301376000602085830101528094505050505092915050565b8035801515811461099757600080fd5b919050565b803560ff8116811461099757600080fd5b60008060008060008060c087890312156109c657600080fd5b863567ffffffffffffffff808211156109de57600080fd5b6109ea8a838b016108fa565b97506109f860208a01610987565b9650610a0660408a0161099c565b95506060890135915080821115610a1c57600080fd5b610a288a838b016108fa565b94506080890135915080821115610a3e57600080fd5b610a4a8a838b016108fa565b935060a0890135915080821115610a6057600080fd5b50610a6d89828a016108fa565b9150509295509295509295565b600181811c90821680610a8e57607f821691505b602082108103610aae57634e487b7160e01b600052602260045260246000fd5b50919050565b600060018201610ad457634e487b7160e01b600052601160045260246000fd5b5060010190565b601f821115610b2557600081815260208120601f850160051c81016020861015610b025750805b601f850160051c820191505b81811015610b2157828155600101610b0e565b5050505b505050565b815167ffffffffffffffff811115610b4457610b446108e4565b610b5881610b528454610a7a565b84610adb565b602080601f831160018114610b8d5760008415610b755750858301515b600019600386901b1c1916600185901b178555610b21565b600085815260208120601f198616915b82811015610bbc57888601518255948401946001909101908401610b9d565b5085821015610bda5787850151600019600388901b60f8161c191681555b5050505050600190811b01905550565b608081526000610bfd6080830187610819565b851515602084015260ff851660408401528281036060840152610c208185610819565b97965050505050505056fea26469706673582212209789950587b1344eef0dcada6349b8196395aae8da0d51bd2ba38dd24312161064736f6c63430008140033",
  "linkReferences": {},
  "deployedLinkReferences": {}
}